{
  "_format": "hh-sol-artifact-1",
  "contractName": "MarketPlace",
  "sourceName": "contracts/MarketPlace.sol",
  "abi": [
    {
      "inputs": [],
      "stateMutability": "nonpayable",
      "type": "constructor"
    },
    {
      "inputs": [
        {
          "internalType": "string",
          "name": "name",
          "type": "string"
        },
        {
          "internalType": "uint256",
          "name": "price",
          "type": "uint256"
        },
        {
          "internalType": "string",
          "name": "imageUrl",
          "type": "string"
        },
        {
          "internalType": "bool",
          "name": "isListed",
          "type": "bool"
        }
      ],
      "name": "addNFT",
      "outputs": [
        {
          "internalType": "uint256",
          "name": "",
          "type": "uint256"
        }
      ],
      "stateMutability": "payable",
      "type": "function"
    },
    {
      "inputs": [
        {
          "internalType": "uint256",
          "name": "id",
          "type": "uint256"
        },
        {
          "internalType": "string",
          "name": "name",
          "type": "string"
        },
        {
          "internalType": "uint256",
          "name": "price",
          "type": "uint256"
        },
        {
          "internalType": "string",
          "name": "imageUrl",
          "type": "string"
        },
        {
          "internalType": "bool",
          "name": "isListed",
          "type": "bool"
        }
      ],
      "name": "editNFT",
      "outputs": [],
      "stateMutability": "nonpayable",
      "type": "function"
    },
    {
      "inputs": [],
      "name": "getAllListedNFT",
      "outputs": [
        {
          "components": [
            {
              "internalType": "uint256",
              "name": "id",
              "type": "uint256"
            },
            {
              "internalType": "string",
              "name": "name",
              "type": "string"
            },
            {
              "internalType": "address",
              "name": "currentOwner",
              "type": "address"
            },
            {
              "internalType": "uint256",
              "name": "price",
              "type": "uint256"
            },
            {
              "internalType": "string",
              "name": "imageUrl",
              "type": "string"
            },
            {
              "internalType": "bool",
              "name": "isListed",
              "type": "bool"
            }
          ],
          "internalType": "struct MarketPlace.nft[]",
          "name": "",
          "type": "tuple[]"
        }
      ],
      "stateMutability": "view",
      "type": "function"
    },
    {
      "inputs": [
        {
          "internalType": "address",
          "name": "user",
          "type": "address"
        }
      ],
      "name": "getUserNFTList",
      "outputs": [
        {
          "components": [
            {
              "internalType": "uint256",
              "name": "id",
              "type": "uint256"
            },
            {
              "internalType": "string",
              "name": "name",
              "type": "string"
            },
            {
              "internalType": "address",
              "name": "currentOwner",
              "type": "address"
            },
            {
              "internalType": "uint256",
              "name": "price",
              "type": "uint256"
            },
            {
              "internalType": "string",
              "name": "imageUrl",
              "type": "string"
            },
            {
              "internalType": "bool",
              "name": "isListed",
              "type": "bool"
            }
          ],
          "internalType": "struct MarketPlace.nft[]",
          "name": "",
          "type": "tuple[]"
        }
      ],
      "stateMutability": "view",
      "type": "function"
    },
    {
      "inputs": [
        {
          "internalType": "uint256",
          "name": "",
          "type": "uint256"
        }
      ],
      "name": "items",
      "outputs": [
        {
          "internalType": "uint256",
          "name": "id",
          "type": "uint256"
        },
        {
          "internalType": "string",
          "name": "name",
          "type": "string"
        },
        {
          "internalType": "address",
          "name": "currentOwner",
          "type": "address"
        },
        {
          "internalType": "uint256",
          "name": "price",
          "type": "uint256"
        },
        {
          "internalType": "string",
          "name": "imageUrl",
          "type": "string"
        },
        {
          "internalType": "bool",
          "name": "isListed",
          "type": "bool"
        }
      ],
      "stateMutability": "view",
      "type": "function"
    },
    {
      "inputs": [],
      "name": "owner",
      "outputs": [
        {
          "internalType": "address",
          "name": "",
          "type": "address"
        }
      ],
      "stateMutability": "view",
      "type": "function"
    }
  ],
  "bytecode": "0x608060405234801561001057600080fd5b50336000806101000a81548173ffffffffffffffffffffffffffffffffffffffff021916908373ffffffffffffffffffffffffffffffffffffffff160217905550611582806100606000396000f3fe6080604052600436106100555760003560e01c80630364a0111461005a57806371925657146100975780638da5cb5b146100c2578063a56c5f45146100ed578063aca4eed014610116578063bfb231d214610146575b600080fd5b34801561006657600080fd5b50610081600480360381019061007c9190610de9565b610188565b60405161008e9190611175565b60405180910390f35b3480156100a357600080fd5b506100ac6104e2565b6040516100b99190611175565b60405180910390f35b3480156100ce57600080fd5b506100d761079d565b6040516100e4919061115a565b60405180910390f35b3480156100f957600080fd5b50610114600480360381019061010f9190610ece565b6107c1565b005b610130600480360381019061012b9190610e12565b61091c565b60405161013d9190611197565b60405180910390f35b34801561015257600080fd5b5061016d60048036038101906101689190610ea5565b610ad8565b60405161017f969594939291906111b2565b60405180910390f35b60606000600360008473ffffffffffffffffffffffffffffffffffffffff1673ffffffffffffffffffffffffffffffffffffffff16815260200190815260200160002080548060200260200160405190810160405280929190818152602001828054801561021557602002820191906000526020600020905b815481526020019060010190808311610201575b5050505050905060006001825161022c91906112dd565b67ffffffffffffffff81111561026b577f4e487b7100000000000000000000000000000000000000000000000000000000600052604160045260246000fd5b6040519080825280602002602001820160405280156102a457816020015b610291610c51565b8152602001906001900390816102895790505b50905060005b82518110156104d7576000600260008381526020019081526020016000209050806040518060c0016040529081600082015481526020016001820180546102f0906113bd565b80601f016020809104026020016040519081016040528092919081815260200182805461031c906113bd565b80156103695780601f1061033e57610100808354040283529160200191610369565b820191906000526020600020905b81548152906001019060200180831161034c57829003601f168201915b505050505081526020016002820160009054906101000a900473ffffffffffffffffffffffffffffffffffffffff1673ffffffffffffffffffffffffffffffffffffffff1673ffffffffffffffffffffffffffffffffffffffff168152602001600382015481526020016004820180546103e2906113bd565b80601f016020809104026020016040519081016040528092919081815260200182805461040e906113bd565b801561045b5780601f106104305761010080835404028352916020019161045b565b820191906000526020600020905b81548152906001019060200180831161043e57829003601f168201915b505050505081526020016005820160009054906101000a900460ff1615151515815250508383815181106104b8577f4e487b7100000000000000000000000000000000000000000000000000000000600052603260045260246000fd5b60200260200101819052505080806104cf90611420565b9150506102aa565b508092505050919050565b6060600060015467ffffffffffffffff811115610528577f4e487b7100000000000000000000000000000000000000000000000000000000600052604160045260246000fd5b60405190808252806020026020018201604052801561056157816020015b61054e610c51565b8152602001906001900390816105465790505b50905060005b600154811015610795576000600260008381526020019081526020016000209050806040518060c0016040529081600082015481526020016001820180546105ae906113bd565b80601f01602080910402602001604051908101604052809291908181526020018280546105da906113bd565b80156106275780601f106105fc57610100808354040283529160200191610627565b820191906000526020600020905b81548152906001019060200180831161060a57829003601f168201915b505050505081526020016002820160009054906101000a900473ffffffffffffffffffffffffffffffffffffffff1673ffffffffffffffffffffffffffffffffffffffff1673ffffffffffffffffffffffffffffffffffffffff168152602001600382015481526020016004820180546106a0906113bd565b80601f01602080910402602001604051908101604052809291908181526020018280546106cc906113bd565b80156107195780601f106106ee57610100808354040283529160200191610719565b820191906000526020600020905b8154815290600101906020018083116106fc57829003601f168201915b505050505081526020016005820160009054906101000a900460ff161515151581525050838381518110610776577f4e487b7100000000000000000000000000000000000000000000000000000000600052603260045260246000fd5b602002602001018190525050808061078d90611420565b915050610567565b508091505090565b60008054906101000a900473ffffffffffffffffffffffffffffffffffffffff1681565b846002600082815260200190815260200160002060020160009054906101000a900473ffffffffffffffffffffffffffffffffffffffff1673ffffffffffffffffffffffffffffffffffffffff163373ffffffffffffffffffffffffffffffffffffffff161461083057600080fd5b8460026000888152602001908152602001600020600101908051906020019061085a929190610c9f565b50836002600088815260200190815260200160002060030181905550826002600088815260200190815260200160002060040190805190602001906108a0929190610c9f565b5060006002600088815260200190815260200160002060050160006101000a81548160ff02191690831515021790555081156109145760008410156108e457600080fd5b60016002600088815260200190815260200160002060050160006101000a81548160ff0219169083151502179055505b505050505050565b6000662386f26fc10000341161093157600080fd5b6001600081548092919061094490611420565b91905055506000600154905060006040518060c001604052808381526020018881526020013373ffffffffffffffffffffffffffffffffffffffff168152602001878152602001868152602001851515815250905080600260008481526020019081526020016000206000820151816000015560208201518160010190805190602001906109d3929190610c9f565b5060408201518160020160006101000a81548173ffffffffffffffffffffffffffffffffffffffff021916908373ffffffffffffffffffffffffffffffffffffffff160217905550606082015181600301556080820151816004019080519060200190610a41929190610c9f565b5060a08201518160050160006101000a81548160ff021916908315150217905550905050600360003373ffffffffffffffffffffffffffffffffffffffff1673ffffffffffffffffffffffffffffffffffffffff1681526020019081526020016000208290806001815401808255809150506001900390600052602060002001600090919091909150558192505050949350505050565b6002602052806000526040600020600091509050806000015490806001018054610b01906113bd565b80601f0160208091040260200160405190810160405280929190818152602001828054610b2d906113bd565b8015610b7a5780601f10610b4f57610100808354040283529160200191610b7a565b820191906000526020600020905b815481529060010190602001808311610b5d57829003601f168201915b5050505050908060020160009054906101000a900473ffffffffffffffffffffffffffffffffffffffff1690806003015490806004018054610bbb906113bd565b80601f0160208091040260200160405190810160405280929190818152602001828054610be7906113bd565b8015610c345780601f10610c0957610100808354040283529160200191610c34565b820191906000526020600020905b815481529060010190602001808311610c1757829003601f168201915b5050505050908060050160009054906101000a900460ff16905086565b6040518060c001604052806000815260200160608152602001600073ffffffffffffffffffffffffffffffffffffffff16815260200160008152602001606081526020016000151581525090565b828054610cab906113bd565b90600052602060002090601f016020900481019282610ccd5760008555610d14565b82601f10610ce657805160ff1916838001178555610d14565b82800160010185558215610d14579182015b82811115610d13578251825591602001919060010190610cf8565b5b509050610d219190610d25565b5090565b5b80821115610d3e576000816000905550600101610d26565b5090565b6000610d55610d5084611246565b611221565b905082815260208101848484011115610d6d57600080fd5b610d7884828561137b565b509392505050565b600081359050610d8f81611507565b92915050565b600081359050610da48161151e565b92915050565b600082601f830112610dbb57600080fd5b8135610dcb848260208601610d42565b91505092915050565b600081359050610de381611535565b92915050565b600060208284031215610dfb57600080fd5b6000610e0984828501610d80565b91505092915050565b60008060008060808587031215610e2857600080fd5b600085013567ffffffffffffffff811115610e4257600080fd5b610e4e87828801610daa565b9450506020610e5f87828801610dd4565b935050604085013567ffffffffffffffff811115610e7c57600080fd5b610e8887828801610daa565b9250506060610e9987828801610d95565b91505092959194509250565b600060208284031215610eb757600080fd5b6000610ec584828501610dd4565b91505092915050565b600080600080600060a08688031215610ee657600080fd5b6000610ef488828901610dd4565b955050602086013567ffffffffffffffff811115610f1157600080fd5b610f1d88828901610daa565b9450506040610f2e88828901610dd4565b935050606086013567ffffffffffffffff811115610f4b57600080fd5b610f5788828901610daa565b9250506080610f6888828901610d95565b9150509295509295909350565b6000610f8183836110ac565b905092915050565b610f9281611333565b82525050565b610fa181611333565b82525050565b6000610fb282611287565b610fbc81856112aa565b935083602082028501610fce85611277565b8060005b8581101561100a5784840389528151610feb8582610f75565b9450610ff68361129d565b925060208a01995050600181019050610fd2565b50829750879550505050505092915050565b61102581611345565b82525050565b61103481611345565b82525050565b600061104582611292565b61104f81856112bb565b935061105f81856020860161138a565b611068816114f6565b840191505092915050565b600061107e82611292565b61108881856112cc565b935061109881856020860161138a565b6110a1816114f6565b840191505092915050565b600060c0830160008301516110c4600086018261113c565b50602083015184820360208601526110dc828261103a565b91505060408301516110f16040860182610f89565b506060830151611104606086018261113c565b506080830151848203608086015261111c828261103a565b91505060a083015161113160a086018261101c565b508091505092915050565b61114581611371565b82525050565b61115481611371565b82525050565b600060208201905061116f6000830184610f98565b92915050565b6000602082019050818103600083015261118f8184610fa7565b905092915050565b60006020820190506111ac600083018461114b565b92915050565b600060c0820190506111c7600083018961114b565b81810360208301526111d98188611073565b90506111e86040830187610f98565b6111f5606083018661114b565b81810360808301526112078185611073565b905061121660a083018461102b565b979650505050505050565b600061122b61123c565b905061123782826113ef565b919050565b6000604051905090565b600067ffffffffffffffff821115611261576112606114c7565b5b61126a826114f6565b9050602081019050919050565b6000819050602082019050919050565b600081519050919050565b600081519050919050565b6000602082019050919050565b600082825260208201905092915050565b600082825260208201905092915050565b600082825260208201905092915050565b60006112e882611371565b91506112f383611371565b9250827fffffffffffffffffffffffffffffffffffffffffffffffffffffffffffffffff0382111561132857611327611469565b5b828201905092915050565b600061133e82611351565b9050919050565b60008115159050919050565b600073ffffffffffffffffffffffffffffffffffffffff82169050919050565b6000819050919050565b82818337600083830152505050565b60005b838110156113a857808201518184015260208101905061138d565b838111156113b7576000848401525b50505050565b600060028204905060018216806113d557607f821691505b602082108114156113e9576113e8611498565b5b50919050565b6113f8826114f6565b810181811067ffffffffffffffff82111715611417576114166114c7565b5b80604052505050565b600061142b82611371565b91507fffffffffffffffffffffffffffffffffffffffffffffffffffffffffffffffff82141561145e5761145d611469565b5b600182019050919050565b7f4e487b7100000000000000000000000000000000000000000000000000000000600052601160045260246000fd5b7f4e487b7100000000000000000000000000000000000000000000000000000000600052602260045260246000fd5b7f4e487b7100000000000000000000000000000000000000000000000000000000600052604160045260246000fd5b6000601f19601f8301169050919050565b61151081611333565b811461151b57600080fd5b50565b61152781611345565b811461153257600080fd5b50565b61153e81611371565b811461154957600080fd5b5056fea2646970667358221220648a4bea8d0b8ebd2e9c3b664b8f39109293d63dd54b09d828a10331056760c964736f6c63430008010033",
  "linkReferences": {},
  "deployedLinkReferences": {}
}